:020000040800F2
:1000000008040020910000081B481C491C4B994221
:100010003CBF50F8042B41F8042BF8D319494FF09A
:1000200000028B4238BF43F8042BFAD3164801680C
:10003000164A06B400F002F806BCFEE77FB508AE2B
:1000400056F8040B316801F103014FF00402034636
:1000500003F00F0300F009F801F801394FEA10101E
:10006000521EF4D1BDE87F407047092B01DD03F13A
:10007000070303F1300370479800000800000020D8
:1000800008000020080400200000002004000020D8
:100090000048004709000008F58A00000000000041
:04000005080000915E
:00000001FF
