:020000040800F2
:10000000080400207500000815481649164B99424F
:100010003CBF50F8042B41F8042BF8D313494FF0A0
:1000200000028B4238BF43F8042BFAD30FB530B42B
:100030004FF001004FF002014FF003024FF00403B4
:100040004FF005044FF0060530B400F017F8084DE6
:10005000286001B001B030BCBDE80F40FEE700BF32
:100060009000000800000020040000200804002088
:1000700000000020004800470900000870B5044651
:10008000DDE904566018104418442844304470BD1B
:04009000000000006C
:04000005080000757A
:00000001FF
