:020000040800F2
:1000000008040020090000081C481D491D4B9942A6
:100010003CBF50F8042B41F8042BF8D31A494FF099
:1000200000028B4238BF43F8042BFAD3174801680B
:10003000174A06B400F002F806BCFEE77FB508AE2A
:1000400056F8040B316801F103014FF00402034636
:1000500003F00F0300F009F801F801394FEA10101E
:10006000521EF4D1BDE87F407047092B01DD03F13A
:10007000070303F13003704700BF0000940000083D
:1000800000000020080000200804002000000020DC
:0C00900004000020F58A000000000000C1
:0400000508000009E6
:00000001FF
